{
  "contractName": "Bizzar",
  "abi": [
    {
      "constant": true,
      "inputs": [
        {
          "name": "_productId",
          "type": "uint256"
        }
      ],
      "name": "isOwnerOfAsset",
      "outputs": [
        {
          "name": "",
          "type": "bool"
        }
      ],
      "payable": false,
      "stateMutability": "view",
      "type": "function"
    },
    {
      "constant": false,
      "inputs": [],
      "name": "withdraw",
      "outputs": [],
      "payable": false,
      "stateMutability": "nonpayable",
      "type": "function"
    },
    {
      "constant": true,
      "inputs": [],
      "name": "getProductCount",
      "outputs": [
        {
          "name": "",
          "type": "uint256"
        }
      ],
      "payable": false,
      "stateMutability": "view",
      "type": "function"
    },
    {
      "constant": true,
      "inputs": [
        {
          "name": "",
          "type": "uint256"
        }
      ],
      "name": "products",
      "outputs": [
        {
          "name": "owner",
          "type": "address"
        },
        {
          "name": "name",
          "type": "bytes32"
        },
        {
          "name": "description",
          "type": "bytes32"
        },
        {
          "name": "price",
          "type": "uint256"
        }
      ],
      "payable": false,
      "stateMutability": "view",
      "type": "function"
    },
    {
      "constant": false,
      "inputs": [
        {
          "name": "_name",
          "type": "bytes32"
        },
        {
          "name": "_description",
          "type": "bytes32"
        },
        {
          "name": "_price",
          "type": "uint256"
        }
      ],
      "name": "addProduct",
      "outputs": [
        {
          "name": "",
          "type": "uint256"
        }
      ],
      "payable": false,
      "stateMutability": "nonpayable",
      "type": "function"
    },
    {
      "constant": false,
      "inputs": [
        {
          "name": "_productId",
          "type": "uint256"
        }
      ],
      "name": "buyProduct",
      "outputs": [],
      "payable": true,
      "stateMutability": "payable",
      "type": "function"
    },
    {
      "constant": true,
      "inputs": [],
      "name": "owner",
      "outputs": [
        {
          "name": "",
          "type": "address"
        }
      ],
      "payable": false,
      "stateMutability": "view",
      "type": "function"
    },
    {
      "constant": true,
      "inputs": [],
      "name": "getTxFee",
      "outputs": [
        {
          "name": "",
          "type": "uint256"
        }
      ],
      "payable": false,
      "stateMutability": "view",
      "type": "function"
    },
    {
      "constant": false,
      "inputs": [
        {
          "name": "_productId",
          "type": "uint256"
        },
        {
          "name": "_newPrice",
          "type": "uint256"
        }
      ],
      "name": "changePrice",
      "outputs": [],
      "payable": false,
      "stateMutability": "nonpayable",
      "type": "function"
    },
    {
      "constant": true,
      "inputs": [],
      "name": "getProducts",
      "outputs": [
        {
          "name": "",
          "type": "uint256[]"
        },
        {
          "name": "",
          "type": "address[]"
        },
        {
          "name": "",
          "type": "bytes32[]"
        },
        {
          "name": "",
          "type": "bytes32[]"
        },
        {
          "name": "",
          "type": "uint256[]"
        }
      ],
      "payable": false,
      "stateMutability": "view",
      "type": "function"
    },
    {
      "constant": true,
      "inputs": [
        {
          "name": "_productId",
          "type": "uint256"
        }
      ],
      "name": "getOwner",
      "outputs": [
        {
          "name": "",
          "type": "address"
        },
        {
          "name": "",
          "type": "bytes32"
        },
        {
          "name": "",
          "type": "bytes32"
        },
        {
          "name": "",
          "type": "uint256"
        }
      ],
      "payable": false,
      "stateMutability": "view",
      "type": "function"
    },
    {
      "constant": false,
      "inputs": [
        {
          "name": "_productId",
          "type": "uint256"
        },
        {
          "name": "_newName",
          "type": "bytes32"
        }
      ],
      "name": "changeName",
      "outputs": [],
      "payable": false,
      "stateMutability": "nonpayable",
      "type": "function"
    },
    {
      "constant": false,
      "inputs": [
        {
          "name": "_productId",
          "type": "uint256"
        },
        {
          "name": "_newDescription",
          "type": "bytes32"
        }
      ],
      "name": "changeDescription",
      "outputs": [],
      "payable": false,
      "stateMutability": "nonpayable",
      "type": "function"
    },
    {
      "constant": false,
      "inputs": [
        {
          "name": "_fee",
          "type": "uint256"
        }
      ],
      "name": "setTxFee",
      "outputs": [],
      "payable": false,
      "stateMutability": "nonpayable",
      "type": "function"
    },
    {
      "constant": false,
      "inputs": [
        {
          "name": "newOwner",
          "type": "address"
        }
      ],
      "name": "transferOwnership",
      "outputs": [],
      "payable": false,
      "stateMutability": "nonpayable",
      "type": "function"
    },
    {
      "anonymous": false,
      "inputs": [
        {
          "indexed": false,
          "name": "productId",
          "type": "uint256"
        },
        {
          "indexed": false,
          "name": "owner",
          "type": "address"
        },
        {
          "indexed": false,
          "name": "name",
          "type": "bytes32"
        },
        {
          "indexed": false,
          "name": "description",
          "type": "bytes32"
        },
        {
          "indexed": false,
          "name": "price",
          "type": "uint256"
        }
      ],
      "name": "NewProduct",
      "type": "event"
    },
    {
      "anonymous": false,
      "inputs": [
        {
          "indexed": true,
          "name": "previousOwner",
          "type": "address"
        },
        {
          "indexed": true,
          "name": "newOwner",
          "type": "address"
        }
      ],
      "name": "OwnershipTransferred",
      "type": "event"
    }
  ],
  "bytecode": "0x6060604052600160025560008054600160a060020a033316600160a060020a0319909116179055610c6c806100356000396000f3006060604052600436106100da5763ffffffff7c01000000000000000000000000000000000000000000000000000000006000350416632466eec981146100df5780633ccfd60b146101095780634a348da91461011e5780637acc0b2014610143578063803145ad1461018f5780638642269e146101ab5780638da5cb5b146101b65780639e7d207d146101e5578063b3de019c146101f8578063c29b2f2014610211578063c41a360a1461038c578063cd917a31146103a2578063d28e7444146103bb578063f05d16f7146103d4578063f2fde38b146103ea575b600080fd5b34156100ea57600080fd5b6100f5600435610409565b604051901515815260200160405180910390f35b341561011457600080fd5b61011c610453565b005b341561012957600080fd5b6101316104a9565b60405190815260200160405180910390f35b341561014e57600080fd5b6101596004356104b0565b604051600160a060020a039094168452602084019290925260408084019190915260608301919091526080909101905180910390f35b341561019a57600080fd5b6101316004356024356044356104f2565b61011c6004356105de565b34156101c157600080fd5b6101c96106d6565b604051600160a060020a03909116815260200160405180910390f35b34156101f057600080fd5b6101316106e5565b341561020357600080fd5b61011c6004356024356106eb565b341561021c57600080fd5b610224610751565b60405180806020018060200180602001806020018060200186810386528b818151815260200191508051906020019060200280838360005b8381101561027457808201518382015260200161025c565b5050505090500186810385528a818151815260200191508051906020019060200280838360005b838110156102b357808201518382015260200161029b565b50505050905001868103845289818151815260200191508051906020019060200280838360005b838110156102f25780820151838201526020016102da565b50505050905001868103835288818151815260200191508051906020019060200280838360005b83811015610331578082015183820152602001610319565b50505050905001868103825287818151815260200191508051906020019060200280838360005b83811015610370578082015183820152602001610358565b505050509050019a505050505050505050505060405180910390f35b341561039757600080fd5b610159600435610964565b34156103ad57600080fd5b61011c600435602435610a07565b34156103c657600080fd5b61011c600435602435610a6c565b34156103df57600080fd5b61011c600435610ad1565b34156103f557600080fd5b61011c600160a060020a0360043516610af1565b600033600160a060020a031660018381548110151561042457fe5b6000918252602090912060049091020154600160a060020a03161461044a57600061044d565b60015b92915050565b60005433600160a060020a0390811691161461046e57600080fd5b600054600160a060020a039081169030163180156108fc0290604051600060405180830381858888f1935050505015156104a757600080fd5b565b6001545b90565b60018054829081106104be57fe5b60009182526020909120600490910201805460018201546002830154600390930154600160a060020a039092169350919084565b6001805460009161050590828101610b8c565b5060018054339190600019810190811061051b57fe5b60009182526020909120600490910201805473ffffffffffffffffffffffffffffffffffffffff1916600160a060020a039290921691909117905560018054859190600019810190811061056b57fe5b6000918252602090912060016004909202018101919091558054849190600019810190811061059657fe5b60009182526020909120600260049092020101556001805483919060001981019081106105bf57fe5b6000918252602090912060036004909202010155506001549392505050565b60018054829081106105ec57fe5b906000526020600020906004020160030154341015151561060c57600080fd5b600180548290811061061a57fe5b6000918252602090912060049091020154600254600160a060020a0390911690340380156108fc0290604051600060405180830381858888f19350505050151561066357600080fd5b3460018281548110151561067357fe5b9060005260206000209060040201600301819055503360018281548110151561069857fe5b60009182526020909120600490910201805473ffffffffffffffffffffffffffffffffffffffff1916600160a060020a039290921691909117905550565b600054600160a060020a031681565b60025490565b33600160a060020a031660018381548110151561070457fe5b6000918252602090912060049091020154600160a060020a03161461072857600080fd5b8060018381548110151561073857fe5b9060005260206000209060040201600301819055505050565b610759610bbd565b610761610bbd565b610769610bbd565b610771610bbd565b610779610bbd565b6000610783610bbd565b61078b610bbd565b610793610bbd565b61079b610bbd565b6107a3610bbd565b60006107ad610bcf565b6001549750876040518059106107c05750595b90808252806020026020018201604052509650876040518059106107e15750595b90808252806020026020018201604052509550876040518059106108025750595b90808252806020026020018201604052509450876040518059106108235750595b90808252806020026020018201604052509350876040518059106108445750595b90808252806020026020018201604052509250600091505b60015482101561095157600180548390811061087457fe5b9060005260206000209060040201608060405190810160409081528254600160a060020a031682526001830154602083015260028301549082015260039091015460608201529050818781815181106108c957fe5b6020908102909101015280518683815181106108e157fe5b600160a060020a03909216602092830290910182015281015185838151811061090657fe5b60209081029091010152604081015184838151811061092157fe5b60209081029091010152606081015183838151811061093c57fe5b6020908102909101015260019091019061085c565b50949b939a509198509650945092505050565b60008060008060018581548110151561097957fe5b600091825260209091206004909102015460018054600160a060020a0390921691879081106109a457fe5b9060005260206000209060040201600101546001878154811015156109c557fe5b9060005260206000209060040201600201546001888154811015156109e657fe5b90600052602060002090600402016003015493509350935093509193509193565b33600160a060020a0316600183815481101515610a2057fe5b6000918252602090912060049091020154600160a060020a031614610a4457600080fd5b80600183815481101515610a5457fe5b60009182526020909120600160049092020101555050565b33600160a060020a0316600183815481101515610a8557fe5b6000918252602090912060049091020154600160a060020a031614610aa957600080fd5b80600183815481101515610ab957fe5b60009182526020909120600260049092020101555050565b60005433600160a060020a03908116911614610aec57600080fd5b600255565b60005433600160a060020a03908116911614610b0c57600080fd5b600160a060020a0381161515610b2157600080fd5b600054600160a060020a0380831691167f8be0079c531659141344cd1fd0a4f28419497f9722a3daafe3b4186f6b6457e060405160405180910390a36000805473ffffffffffffffffffffffffffffffffffffffff1916600160a060020a0392909216919091179055565b815481835581811511610bb857600402816004028360005260206000209182019101610bb89190610bf6565b505050565b60206040519081016040526000815290565b60806040519081016040908152600080835260208301819052908201819052606082015290565b6104ad91905b80821115610c3c57805473ffffffffffffffffffffffffffffffffffffffff19168155600060018201819055600282018190556003820155600401610bfc565b50905600a165627a7a72305820e2e06601bcbfc0ed7d550b041ae666f047e33c305072004ad1d427ebe3d7be7d0029",
  "source": "pragma solidity ^0.4.18;\r\n\r\n\r\n contract Ownable {\r\n  address public owner;\r\n\r\n\r\n  event OwnershipTransferred(address indexed previousOwner, address indexed newOwner);\r\n\r\n\r\n  /**\r\n   * @dev The Ownable constructor sets the original `owner` of the contract to the sender\r\n   * account.\r\n   */\r\n  function Ownable() public {\r\n    owner = msg.sender;\r\n  }\r\n\r\n  /**\r\n   * @dev Throws if called by any account other than the owner.\r\n   */\r\n  modifier onlyOwner() {\r\n    require(msg.sender == owner);\r\n    _;\r\n  }\r\n\r\n  /**\r\n   * @dev Allows the current owner to transfer control of the contract to a newOwner.\r\n   * @param newOwner The address to transfer ownership to.\r\n   */\r\n  function transferOwnership(address newOwner) public onlyOwner {\r\n    require(newOwner != address(0));\r\n    OwnershipTransferred(owner, newOwner);\r\n    owner = newOwner;\r\n  }\r\n }\r\n \r\n /**\r\n * @title Bizzar\r\n * @author Jake McCarthy\r\n * @notice simple dsitributed marketplace concept\r\n */\r\n\r\ncontract Bizzar is Ownable {\r\n    \r\n    struct  Product {\r\n        address owner;\r\n        bytes32 name;\r\n        bytes32 description;\r\n        uint price;\r\n    }\r\n    \r\n    event NewProduct(uint productId, address owner,bytes32 name, bytes32 description, uint price);\r\n    \r\n    Product[] public products;\r\n\r\n    //@dev add a Product\r\n    function addProduct(bytes32 _name, bytes32 _description, uint _price) public returns(uint) {\r\n        products.length++;\r\n        products[products.length-1].owner = msg.sender;\r\n        products[products.length-1].name = _name;\r\n        products[products.length-1].description = _description;\r\n        products[products.length-1].price = _price;\r\n        return products.length;\r\n        NewProduct(products.length, owner,_name, _description, _price);\r\n    }\r\n\r\n    //@dev get total number of products\r\n    function getProductCount() public constant returns(uint) {\r\n        return products.length;\r\n    }\r\n    \r\n    //@dev get a specific owners info via thier id\r\n    function getOwner(uint _productId) external view returns(address, bytes32, bytes32, uint) {\r\n        return (products[_productId].owner, products[_productId].name, products[_productId].description, products[_productId].price);\r\n    }\r\n    \r\n    //@dev get all products details\r\n    function getProducts() external view returns (uint[], address[], bytes32[], bytes32[], uint[]) {\r\n\t\tuint length = products.length;\r\n        uint[] memory productIds = new uint[](length);\r\n        address[]  memory owners = new address[](length);\r\n\t\tbytes32[] memory names = new bytes32[](length);\r\n\t\tbytes32[] memory descriptions = new bytes32[](length);\r\n\t\tuint[] memory prices = new uint[](length);\r\n\r\n\t\tfor (uint _productId = 0; _productId < products.length; _productId++) {\r\n\t\t\tProduct memory currentUser;\r\n\t\t\tcurrentUser = products[_productId];\r\n            productIds[_productId] = _productId;\r\n            owners[_productId] = currentUser.owner;\r\n\t\t\tnames[_productId] = currentUser.name;\r\n\t\t\tdescriptions[_productId] = currentUser.description;\r\n\t\t\tprices[_productId] = currentUser.price;\r\n\t\t}\r\n\treturn (productIds, owners, names, descriptions, prices);\r\n    }\r\n    \r\n    //@dev check via id if msg.sender is owner \r\n    function isOwnerOfAsset(uint _productId) public constant returns(bool) {\r\n        return products[_productId].owner == msg.sender? true:false;\r\n    }\r\n    \r\n    //@dev allow msg.sender to change name if theyre owner \r\n    function changeName(uint _productId, bytes32 _newName) external {\r\n        require(products[_productId].owner == msg.sender);\r\n        products[_productId].name = _newName;\r\n    }\r\n    \r\n     //@dev allow msg.sender to change description if theyre owner \r\n    function changeDescription(uint _productId, bytes32 _newDescription) external {\r\n        require(products[_productId].owner == msg.sender);\r\n        products[_productId].description = _newDescription;\r\n    }\r\n    \r\n     //@dev allow msg.sender to change description if theyre owner \r\n    function changePrice(uint _productId, uint _newPrice) external {\r\n        require(products[_productId].owner == msg.sender);\r\n        products[_productId].price = _newPrice;\r\n    }\r\n    \r\n    //@dev transfer ownership if the user meets set buy price and pays txfee\r\n    function buyProduct(uint _productId) public payable {\r\n        require(msg.value >= products[_productId].price );\r\n        products[_productId].owner.transfer(msg.value-txFee);\r\n        products[_productId].price = (msg.value);\r\n        products[_productId].owner = msg.sender; \r\n    }\r\n    \r\n    //@dev current txFee\r\n    uint txFee = 1 wei;\r\n    \r\n    //@dev get a specific owners info via thier id\r\n    function getTxFee() external view returns(uint) {\r\n        return (txFee);\r\n    }\r\n    \r\n    //@dev show txFee\r\n    function setTxFee(uint _fee) external onlyOwner {\r\n    txFee = _fee;\r\n  }\r\n    \r\n    //@dev allow contractowner to empty contract off txfees\r\n    function withdraw() external onlyOwner {\r\n    owner.transfer(this.balance);\r\n  }\r\n}",
  "sourcePath": "C:\\Users\\Jake\\Desktop\\BizzarTest\\backendv6test\\contracts\\Bizzar.sol",
  "compiler": {
    "name": "solc",
    "version": "0.4.18+commit.9cf6e910.Emscripten.clang"
  },
  "schemaVersion": "1.0.1",
  "updatedAt": "2018-03-21T13:23:43.189Z"
}