{
  "contractName": "ProductFactory",
  "abi": [
    {
      "constant": true,
      "inputs": [
        {
          "name": "",
          "type": "uint256"
        }
      ],
      "name": "productToOwner",
      "outputs": [
        {
          "name": "",
          "type": "address"
        }
      ],
      "payable": false,
      "stateMutability": "view",
      "type": "function"
    },
    {
      "constant": true,
      "inputs": [
        {
          "name": "",
          "type": "uint256"
        }
      ],
      "name": "products",
      "outputs": [
        {
          "name": "productId",
          "type": "address"
        },
        {
          "name": "name",
          "type": "bytes32"
        },
        {
          "name": "description",
          "type": "bytes32"
        },
        {
          "name": "price",
          "type": "uint16"
        },
        {
          "name": "stock",
          "type": "uint16"
        }
      ],
      "payable": false,
      "stateMutability": "view",
      "type": "function"
    },
    {
      "constant": true,
      "inputs": [],
      "name": "owner",
      "outputs": [
        {
          "name": "",
          "type": "address"
        }
      ],
      "payable": false,
      "stateMutability": "view",
      "type": "function"
    },
    {
      "constant": true,
      "inputs": [],
      "name": "getProducts",
      "outputs": [
        {
          "name": "",
          "type": "address[]"
        },
        {
          "name": "",
          "type": "bytes32[]"
        },
        {
          "name": "",
          "type": "bytes32[]"
        },
        {
          "name": "",
          "type": "uint16[]"
        },
        {
          "name": "",
          "type": "uint16[]"
        }
      ],
      "payable": false,
      "stateMutability": "view",
      "type": "function"
    },
    {
      "constant": true,
      "inputs": [
        {
          "name": "_owner",
          "type": "address"
        }
      ],
      "name": "getProductByOwner",
      "outputs": [
        {
          "name": "",
          "type": "uint256[]"
        }
      ],
      "payable": false,
      "stateMutability": "view",
      "type": "function"
    },
    {
      "constant": false,
      "inputs": [
        {
          "name": "_name",
          "type": "bytes32"
        },
        {
          "name": "_description",
          "type": "bytes32"
        },
        {
          "name": "_price",
          "type": "uint16"
        },
        {
          "name": "_stock",
          "type": "uint16"
        }
      ],
      "name": "createProduct",
      "outputs": [],
      "payable": false,
      "stateMutability": "nonpayable",
      "type": "function"
    },
    {
      "constant": false,
      "inputs": [
        {
          "name": "newOwner",
          "type": "address"
        }
      ],
      "name": "transferOwnership",
      "outputs": [],
      "payable": false,
      "stateMutability": "nonpayable",
      "type": "function"
    },
    {
      "anonymous": false,
      "inputs": [
        {
          "indexed": false,
          "name": "productId",
          "type": "address"
        },
        {
          "indexed": false,
          "name": "name",
          "type": "bytes32"
        },
        {
          "indexed": false,
          "name": "description",
          "type": "bytes32"
        },
        {
          "indexed": false,
          "name": "stock",
          "type": "uint16"
        },
        {
          "indexed": false,
          "name": "price",
          "type": "uint16"
        }
      ],
      "name": "NewProduct",
      "type": "event"
    },
    {
      "anonymous": false,
      "inputs": [
        {
          "indexed": true,
          "name": "previousOwner",
          "type": "address"
        },
        {
          "indexed": true,
          "name": "newOwner",
          "type": "address"
        }
      ],
      "name": "OwnershipTransferred",
      "type": "event"
    }
  ],
  "bytecode": "0x606060405260008054600160a060020a033316600160a060020a0319909116179055610a2f806100306000396000f3006060604052600436106100825763ffffffff7c0100000000000000000000000000000000000000000000000000000000600035041663420fadc881146100875780637acc0b20146100b95780638da5cb5b14610111578063c29b2f2014610124578063d0d0bf011461029f578063d41f9cf714610311578063f2fde38b14610339575b600080fd5b341561009257600080fd5b61009d600435610358565b604051600160a060020a03909116815260200160405180910390f35b34156100c457600080fd5b6100cf600435610373565b604051600160a060020a039095168552602085019390935260408085019290925261ffff908116606085015291909116608083015260a0909101905180910390f35b341561011c57600080fd5b61009d6103c3565b341561012f57600080fd5b6101376103d2565b60405180806020018060200180602001806020018060200186810386528b818151815260200191508051906020019060200280838360005b8381101561018757808201518382015260200161016f565b5050505090500186810385528a818151815260200191508051906020019060200280838360005b838110156101c65780820151838201526020016101ae565b50505050905001868103845289818151815260200191508051906020019060200280838360005b838110156102055780820151838201526020016101ed565b50505050905001868103835288818151815260200191508051906020019060200280838360005b8381101561024457808201518382015260200161022c565b50505050905001868103825287818151815260200191508051906020019060200280838360005b8381101561028357808201518382015260200161026b565b505050509050019a505050505050505050505060405180910390f35b34156102aa57600080fd5b6102be600160a060020a036004351661060c565b60405160208082528190810183818151815260200191508051906020019060200280838360005b838110156102fd5780820151838201526020016102e5565b505050509050019250505060405180910390f35b341561031c57600080fd5b61033760043560243561ffff604435811690606435166106ba565b005b341561034457600080fd5b610337600160a060020a036004351661088c565b600260205260009081526040902054600160a060020a031681565b600180548290811061038157fe5b60009182526020909120600490910201805460018201546002830154600390930154600160a060020a039092169350919061ffff808216916201000090041685565b600054600160a060020a031681565b6103da61093d565b6103e261093d565b6103ea61093d565b6103f261093d565b6103fa61093d565b600061040461093d565b61040c61093d565b61041461093d565b61041c61093d565b61042461093d565b600061042e61094f565b6001549750876040518059106104415750595b90808252806020026020018201604052509650876040518059106104625750595b90808252806020026020018201604052509550876040518059106104835750595b90808252806020026020018201604052509450876040518059106104a45750595b90808252806020026020018201604052509350876040518059106104c55750595b90808252806020026020018201604052509250600091505b6001548210156105f95760018054839081106104f557fe5b906000526020600020906004020160a060405190810160409081528254600160a060020a031682526001830154602083015260028301549082015260039091015461ffff8082166060840152620100009091041660808201529050805187838151811061055e57fe5b600160a060020a03909216602092830290910182015281015186838151811061058357fe5b60209081029091010152604081015185838151811061059e57fe5b6020908102909101015260608101518483815181106105b957fe5b61ffff90921660209283029091019091015260808101518383815181106105dc57fe5b61ffff9092166020928302909101909101526001909101906104dd565b50949b939a509198509650945092505050565b61061461093d565b61061c61093d565b600160a060020a038316600090815260036020526040808220548291518059106106435750595b9080825280602002602001820160405250925060009150600090505b6001548110156106b157600081815260026020526040902054600160a060020a03868116911614156106a9578083838151811061069857fe5b602090810290910101526001909101905b60010161065f565b50909392505050565b6001805433916000918082016106d0838261097d565b9160005260206000209060040201600060a06040519081016040908152600160a060020a0387168252602082018b9052810189905261ffff8089166060830152871660808201529190508151815473ffffffffffffffffffffffffffffffffffffffff1916600160a060020a03919091161781556020820151600182015560408201516002820155606082015160038201805461ffff191661ffff9290921691909117905560808201516003918201805461ffff92909216620100000263ffff00001990921691909117905560008381526002602090815260408083208054600160a060020a03331673ffffffffffffffffffffffffffffffffffffffff199091168117909155835292905220549192506107f4919050600163ffffffff61092716565b6003600033600160a060020a0316600160a060020a03168152602001908152602001600020819055507fb2ea0cf1a1670101d19425dab3a6eba795b2249bc8aedc6a9608aff312bcdaac8287878688604051600160a060020a039095168552602085019390935260408085019290925261ffff908116606085015291909116608083015260a0909101905180910390a1505050505050565b60005433600160a060020a039081169116146108a757600080fd5b600160a060020a03811615156108bc57600080fd5b600054600160a060020a0380831691167f8be0079c531659141344cd1fd0a4f28419497f9722a3daafe3b4186f6b6457e060405160405180910390a36000805473ffffffffffffffffffffffffffffffffffffffff1916600160a060020a0392909216919091179055565b60008282018381101561093657fe5b9392505050565b60206040519081016040526000815290565b60a0604051908101604090815260008083526020830181905290820181905260608201819052608082015290565b8154818355818115116109a9576004028160040283600052602060002091820191016109a991906109ae565b505050565b610a0091905b808211156109fc57805473ffffffffffffffffffffffffffffffffffffffff19168155600060018201819055600282015560038101805463ffffffff191690556004016109b4565b5090565b905600a165627a7a7230582030e7ea4a90fbc4bd9921def7ca9a430ee81457b1920439b28988e4007d84093c0029",
  "source": "pragma solidity ^0.4.18;\r\n\r\nimport \"./ownable.sol\";\r\nimport \"./safemath.sol\";\r\n\r\n/**\r\n * @title ProductFactory\r\n * @author Jake McCarthy\r\n * @dev TODO write getter to return all products\r\n *          write getter to return all products by owner \r\n */\r\n \r\n\r\ncontract ProductFactory is Ownable {\r\n    \r\n    using SafeMath for uint;\r\n    using SafeMath16 for uint16;\r\n    \r\n    event NewProduct(address productId, bytes32 name, bytes32 description, uint16 stock, uint16 price);\r\n    \r\n    struct Product {\r\n        address productId;\r\n        bytes32 name;\r\n        bytes32 description;\r\n        uint16 price;\r\n        uint16 stock;\r\n    }\r\n    \r\n    Product[] public products;\r\n    \r\n    mapping (uint => address) public productToOwner;\r\n    mapping (address => uint) ownerProductCount;\r\n    \r\n    function createProduct(bytes32 _name, bytes32 _description, uint16 _price, uint16 _stock) public {\r\n        address productId = msg.sender;\r\n        uint id = products.push(Product(productId, _name, _description, _price, _stock));\r\n        productToOwner[id] = msg.sender;\r\n        ownerProductCount[msg.sender] = ownerProductCount[msg.sender].add(1);\r\n        NewProduct(productId, _name, _description, _stock, _price);\r\n    }\r\n    \r\n    function getProducts() external view returns (address[], bytes32[], bytes32[], uint16[], uint16[]) {\r\n\r\n\t\tuint length = products.length;\r\n\r\n        address[]  memory ids = new address[](length);\r\n\t\tbytes32[] memory names = new bytes32[](length);\r\n\t\tbytes32[] memory descriptions = new bytes32[](length);\r\n\t\tuint16[] memory prices = new uint16[](length);\r\n        uint16[] memory stocks = new uint16[](length);\r\n\r\n\t\tfor (uint i = 0; i < products.length; i++) {\r\n\t\t\tProduct memory currentProduct;\r\n\t\t\tcurrentProduct = products[i];\r\n\r\n            ids[i] = currentProduct.productId;\r\n\t\t\tnames[i] = currentProduct.name;\r\n\t\t\tdescriptions[i] = currentProduct.description;\r\n\t\t\tprices[i] = currentProduct.price;\r\n\t\t\tstocks[i] = currentProduct.stock;\r\n\r\n\t\t}\r\n\r\n\treturn (ids, names, descriptions, prices, stocks);\r\n    }\r\n\r\n    function getProductByOwner(address _owner) external view returns(uint[]) {\r\n        uint[] memory result = new uint[](ownerProductCount[_owner]);\r\n        uint counter = 0;\r\n        for(uint i = 0; i < products.length; i++) {\r\n            if(productToOwner[i] == _owner) {\r\n                result[counter] = i;\r\n                counter++;\r\n            }\r\n        }\r\n        return result;\r\n    }\r\n\r\n    \r\n      \r\n}",
  "sourcePath": "C:\\Users\\Jake\\Desktop\\BizzarTest\\backendv6test\\contracts\\ProductFactory.sol",
  "compiler": {
    "name": "solc",
    "version": "0.4.18+commit.9cf6e910.Emscripten.clang"
  },
  "schemaVersion": "1.0.1",
  "updatedAt": "2018-03-21T13:23:43.175Z"
}